:040000006DEF0FF0A1
:101EDA00000182EF0FF0000E056E000E046E02D0B4
:101EEA00044A052A0150045C0550800A036E025018
:101EFA00800A0358D8B01200F3D7000E076E000EFE
:101F0A00066E000E8B6E000E8C6E000E946E000E26
:101F1A00956E064A072A07BE07D00704D8A004D040
:101F2A00000E076E000E066E06C001F007C002F032
:101F3A00A6EC0FF0000E026E640E016E70EC0FF04C
:101F4A00E8D701C003F0010E0316033A034603461D
:101F5A008C500318BF0B03188C6E01C003F0020EDD
:101F6A000316033A03468C500318DF0B03188C6ED2
:101F7A0001C003F0040E0316033A8C500318EF0B4A
:101F8A0003188C6E01C003F0080E031603320332E5
:101F9A008B5003187F0B03188B6E01C003F0100ED1
:101FAA000316033A034603468B500318BF0B031864
:101FBA008B6E01C003F0200E0316033A03468B50C2
:101FCA000318DF0B03188B6E01C003F0400E0316D3
:101FDA00033A8B500318EF0B03188B6E01C003F002
:101FEA00800E03160346034603468C500318F70B6C
:061FFA0003188C6E1200BA
:020000040020DA
:08000000FFFFFFFFFFFFFFFF00
:020000040030CA
:0E000000FFCF0F3F3C9D85FF0FC00FE00F406C
:00000001FF
