:04000000DCEF00F041
:100008002882FACF0CF0FBCF0DF0E9CF0EF0EACF43
:100018000FF0E1CF10F0E2CF11F0D9CF12F0DACF24
:1000280013F0F3CF14F0F4CF15F0F6CF16F0F7CFA6
:1000380017F0F8CF18F0F5CF19F0F2A49BD0C282D0
:10004800C2B2FED7C3CF1AF01B6AC4501B261BBE10
:1000580006D0200E1A5C030E1B58D8B045D01BBE24
:1000680043D0590E1A5C020E1B58D8A03DD01C5024
:100078001A5C1B50800A096E1D50800A0958D8B0B6
:100088000DD0000E1F6E000E1E6E204A212A000E93
:10009800026E000E016E20EC01F067D01EC009F060
:1000A8001FC00AF0091E0A1E094A0A2A26500924F6
:1000B800246E27500A20256E000E1F6E000E1E6E3D
:1000C80024C001F025C002F0000E046E020E036E7B
:1000D800DEEC00F001C022F002C023F0030E026E35
:1000E800016820EC01F041D01BBE06D0590E1A5C05
:1000F800020E1B58D8B009D01E4A1F2A000E026EE5
:10010800000E016E20EC01F030D0040E2224096E9E
:10011800000E23200A6E1E50095C0A50800A0B6EDE
:100128001F50800A0B58D8B019D01A0E2224096E15
:10013800000E23200A6E09501E5C1F50800A0B6EA9
:100148000A50800A0B58D8B009D0000E026E000E73
:10015800016E20EC01F01E4A1F2A07D01E4A1F2AF2
:10016800030E026E016820EC01F01AC01CF01BC0DF
:100178001DF0F29419C0F5FF18C0F8FF17C0F7FF7B
:1001880016C0F6FF15C0F4FF14C0F3FF13C0DAFF62
:1001980012C0D9FF11C0E2FF10C0E1FF0FC0EAFF93
:1001A8000EC0E9FF0DC0FBFF0CC0FAFF289211003A
:1001B8006EEF01F0000E066E04AE06D0036C041E4E
:1001C800D8B0042A010E066E02AE06D0016C021EDB
:1001D800D8B0022A010E061A000E086E000E076E2D
:1001E80003500410D8B41CD0010E056E04D0D8906A
:1001F80003360436052A04AEFAD7D89007360836EF
:100208000350015C04500258D8A005D00350015E89
:100218000450025A0780D89004320332052EEDD7D5
:100228000650D8B404D0076C081ED8B0082A07C0F6
:1002380001F008C002F012008BCF03F00F0E031676
:1002480001C004F03C0E0416D8900436D89004344B
:1002580003108B6E8CCF03F0030E031601C004F05D
:10026800030E0416D8900436D890043601C005F061
:1002780002C006F00634063205320634063205326C
:100288000550F00B041003108C6E1200720ED36E22
:10029800D3A4FED7000E8B6E000E8C6E080E926EE5
:1002A800000E956E080E946E080EB86E000EB96EAC
:1002B8000D0EC26E000EC16EAB0EC06ED58ED59CF3
:1002C800D59AD596D550F80B0509D56EF28EF28AD7
:1002D800F184FFD700EE1AF00C0EEE6AE806FDE195
:1002E8000A0EF66E030EF76E000EF86E0900F5CFD3
:1002F80026F00900F5CF27F02890289200014AEF50
:0403080001F0780088
:020000040020DA
:08000000FFFFFFFFFFFFFFFF00
:020000040030CA
:0E000000FFC80F3E3C9D85FF0FC00FE00F4074
:00000001FF
