:0400000096EF0EF079
:101D2C000001C3EF0EF08BCF03F00F0E031601C0B2
:101D3C0004F03C0E0416D8900436D89004340310EA
:101D4C008B6E8CCF03F0030E031601C004F0030E50
:101D5C000416D8900436D890043601C005F002C0A1
:101D6C0006F00634063205320634063205320550CA
:101D7C00F00B041003108C6E1200000E0E6E000E91
:101D8C000D6E000E146E000E136E000E0C6E000E17
:101D9C000B6E000E126E000E116E000E106E000E09
:101DAC000F6E000E8B6E000E8C6E080E926E000E77
:101DBC00946E000E956E080EB86E000EB96E0D0E78
:101DCC00C26E000EC16EAB0EC06EC282C2B2FED726
:101DDC00C3CF0DF00E6AC4500E260DC001F00EC01C
:101DEC0002F047EC0FF001C013F002C014F01150D8
:101DFC00135C1450800A076E1250800A0758D8B032
:101E0C001AD013501110016E14501210026E99EC6E
:101E1C000EF00F4A102A10BE14D0105004E10B0E15
:101E2C000F5CD8A00ED012341230076E1130116E28
:101E3C0007C012F006D013C001F014C002F099ECE8
:101E4C000EF013500B5C0C50800A076E1450800A75
:101E5C000758D8B011D0010E1324076E000E1420B1
:101E6C00086E08340830096E0730116E09C012F084
:101E7C00000E106E000E0F6E13C00BF014C00CF0A1
:101E8C00A4D7000E046E000E036E02BE08D0AE0E78
:101E9C00015C030E0258D8A002D0030E23D002BE60
:101EAC0006D0AC0E015C030E0258D8B00AD002BEAC
:101EBC0008D0740E015C030E0258D8A002D0010E9B
:101ECC0011D002BE06D0730E015C030E0258D8B0BE
:101EDC000CD002BE0AD03C0E015C030E0258D8A0F6
:101EEC0004D0000E026E01687CD002BE06D03B0E00
:101EFC00015C030E0258D8B00CD002BE0AD0030EFF
:101F0C00015C030E0258D8A004D0000E026E7F0EA6
:101F1C0067D002BE06D0020E015C030E0258D8B088
:101F2C000CD002BE0AD0CB0E015C020E0258D8A017
:101F3C0004D0000E026E3F0E53D002BE06D0CA0E65
:101F4C00015C020E0258D8B00CD002BE0AD0920E20
:101F5C00015C020E0258D8A004D0000E026E1F0EB7
:101F6C003FD002BE06D0910E015C020E0258D8B0D2
:101F7C000CD002BE0AD05A0E015C020E0258D8A038
:101F8C0004D0000E026E0F0E2BD002BE06D0590EDE
:101F9C00015C020E0258D8B00CD002BE0AD0210E41
:101FAC00015C020E0258D8A004D0000E026E070E7F
:101FBC0017D002BE06D0200E015C020E0258D8B01B
:101FCC000CD002BE0AD0E90E015C010E0258D8A05A
:101FDC0004D0000E026E030E03D0000E026E010E32
:101FEC00016E01C003F002C004F003C001F004C094
:041FFC0002F01200DD
:020000040020DA
:08000000FFFFFFFFFFFFFFFF00
:020000040030CA
:0E000000FFC80F3F3C9D85FF0FC00FE00F4073
:00000001FF
