:0400000087EF0FF087
:101F0E000001B0EF0FF0080E7F6E800E7E6E2F0E6A
:101F1E006F6E000E6E6E090E026EC40E016E01C063
:101F2E007BFF02500F0B7A6E120001C003F002C04D
:101F3E0004F0D89003360436D8900336043603C026
:101F4E0001F004C002F001C079FF02503F0B786E21
:101F5E001200720ED36ED3A4FED78A9093908AECA1
:101F6E000FF03E0E0E6E010E096E060E086E0EC0BE
:101F7E000AF00B6A10D00AC001F00BC002F09CEC04
:101F8E000FF01A0E056EF80EE82EFED7052EFCD7B2
:101F9E0000D00A4A0B2A08500A5C0B50800A056EC4
:101FAE000950800A0558D8A0E6D708C00CF009C021
:101FBE000DF011D00CC001F00DC002F09CEC0FF032
:101FCE001A0E056EF80EE82EFED7052EFCD700D0A1
:101FDE000C06D8A00D060E50056E066A0C50055C58
:101FEE000650800A076E0D50800A0758D8B0BFD72A
:021FFE00E1D729
:020000040020DA
:08000000FFFFFFFFFFFFFFFF00
:020000040030CA
:0E000000FFC80F3E3C9D85FF0FC00FE00F4074
:00000001FF
