:0400000094EF03F086
:100300000001000A006400E803102725642E253050
:10031000326456000000720ED36ED3A4FED7F6EC02
:1003200002F0010EC2EC03F0000E1E6E000E1D6EF8
:100330009286080EB86E000EB96E0D0EC26E000EDB
:10034000C16EAB0EC06E000E086E000E076E2EC0A2
:1003500009F02FC00AF030C00BF031C00CF032C0F1
:100360000DF033C00EF034C00FF035C010F036C0C1
:1003700011F037C012F038C013F039C014F03AC091
:1003800015F03BC016F03CC017F03DC018F03EC061
:1003900019F03FC01AF0000E2D6E25D1C282C2B2F4
:1003A000FED7C3CF1DF01E6AC4501E26000E1C6E61
:1003B000000E1B6E1CBE06D01C5030E10A0E1B5CEA
:1003C000D8B02CD01EBE06D0580E1D5C020E1E5892
:1003D000D8B009D04E0E066EEB0EE82EFED7062ED4
:1003E000FCD700F018D01EBE0ED0850E1D5C030E8B
:1003F0001E58D8A008D0820E066EDE0EE82EFED75C
:10040000062EFCD708D0680E066EE40EE82EFED746
:10041000062EFCD700D01B4A1C2ACCD7000E036E38
:10042000010EABEC03F0080E066ECA0EE82EFED7E6
:10043000062EFCD7010EC2EC03F0000E1F6E06D094
:10044000000E036E1C0EABEC03F01F2A2C501F5C39
:10045000D8A0F6D72D50D8A41AD0000E216E000EC9
:10046000206E21BE06D0215049E1030E205CD8B099
:1004700045D0010E036E090E2024D96E000E2120F6
:10048000DA6EDF50ABEC03F0204A212AEAD72D04C4
:10049000D8A41AD0000E236E000E226E23BE06D002
:1004A00023502CE1030E225CD8B028D0010E036E3D
:1004B0000F0E2224D96E000E2320DA6EDF50ABEC33
:1004C00003F0224A232AEAD7000E256E000E246E7E
:1004D00025BE06D0255012E1030E245CD8B00ED004
:1004E000010E036E150E2424D96E000E2520DA6E3F
:1004F000DF50ABEC03F0244A252AEAD7020EC2EC07
:1005000003F0000E1F6E06D0000E036E1C0EABEC47
:1005100003F01F2A2C501F5CD8A0F6D7000E036EE4
:100520001C0EABEC03F02D50D8A41AD0000E276E91
:10053000000E266E27BE06D0275049E1030E265C2A
:10054000D8B045D0010E036E0C0E2624D96E000ED5
:100550002720DA6EDF50ABEC03F0264A272AEAD7D1
:100560002D04D8A41AD0000E296E000E286E29BEC4
:1005700006D029502CE1030E285CD8B028D0010EFB
:10058000036E120E2824D96E000E2920DA6EDF5079
:10059000ABEC03F0284A292AEAD7000E2B6E000E96
:1005A0002A6E2BBE06D02B5012E1030E2A5CD8B067
:1005B0000ED0010E036E180E2A24D96E000E2B20C9
:1005C000DA6EDF50ABEC03F02A4A2B2AEAD72D2A49
:1005D000030E2D18D8A4E2D6000E2D6E2C2A060E7E
:1005E0002C18D8A4DBD6000E2C6ED8D6899C8B9004
:1005F0008B928B948C908C92929C949094929494E5
:1006000095909592270E056EF50EE82EFED7052ED5
:10061000FCD700F0030E5AEC03F00D0E056EFC0E35
:10062000E82EFED7052EFCD7030E5AEC03F0850EFC
:10063000E82EFED700F0030E5AEC03F0210EE82E50
:10064000FED700F0020E5AEC03F0210EE82EFED782
:1006500000F0000E036E280EABEC03F0210EE82E26
:10066000FED700F0000E036E080EABEC03F0210E77
:10067000E82EFED700F0000E036E010EABEC03F087
:100680000D0E056EFC0EE82EFED7052EFCD7000ED3
:10069000036E060EABEC03F0210EE82EFED700F041
:1006A000000E036E0E0EABEC03F0210EE82EFED70B
:1006B00000F01200026E02C001F0D8900132D89012
:1006C0000132D890013201468C500118FD0B0118FF
:1006D0008C6E02C001F0D8900132D8900132010E28
:1006E00001168C500118FE0B01188C6E02C001F02F
:1006F000D8900132010E0116014601468B500118B7
:10070000FB0B01188B6E02C001F0010E01160146B1
:100710008B500118FD0B01188B6EDFEC03F0030EFC
:10072000E82EFED700F01200AC0EF66E070EF76E44
:10073000000EF86E00EE2EF010EE12F00900F5CF6C
:10074000EEFFE550E150FAE1000EF86E030EF76E91
:1007500000018BEF01F0046E03B002D0899C01D040
:10076000898C04380F0B5AEC03F0060EE82EFED7E6
:1007700000D004500F0B5AEC03F0060EE82EFED703
:1007800000D01200056E0504D8A406D0000E036E3A
:10079000800EABEC03F005D0000E036EC00EABEC88
:1007A00003F0210EE82EFED700F012002028292D9C
:1007B0002F20202829203B202028292020B68B808C
:0C07C000030EE82EFED700F08B90120014
:020000040020DA
:08000000FFFFFFFFFFFFFFFF00
:020000040030CA
:0E000000FFC80F3E3C9D85FF0FC00FE00F4074
:00000001FF
